:020000040800F2
:100000006808002045010008993F00080D360008E7
:10001000953F00080D090008C144000800000000D9
:100020000000000000000000000000006142000825
:100030002909000800000000E9400008A144000868
:100040005F0100085F0100085F0100085F01000810
:100050005F0100085F0100085F0100085F01000800
:100060005F0100082D0900085F0100081109000860
:100070005F0100085F0100081D0900085F0100081A
:100080005F0100085F0100085F0100085F010008D0
:100090005F0100085F0100085F0100085F010008C0
:1000A0005F0100085F0100085F0100085F010008B0
:1000B0005F0100085F0100085F0100085F010008A0
:1000C0005F0100085F0100085F0100085F01000890
:1000D0005F0100085F0100085F0100085F01000880
:1000E0005F0100085F0100085F0100085F01000870
:1000F0005F0100085F0100085F0100085F01000860
:100100005F0100085F0100085F0100085F0100084F
:100110005F0100085F010008A9440008B544000819
:100120005F0100085F0100085F0100085F0100082F
:10013000DFF80CD000F0E8FA004800471945000845
:10014000680800200648804706480047FEE7FEE7AB
:10015000FEE7FEE7FEE7FEE7FEE7FEE7FEE7FEE777
:10016000A544000831010008F0B480EA0102D40F70
:100170004200B2EB410F02D20246084611464A0045
:1001800042D0C30DDDB2C1F3C752AD1A202D35DA0E
:10019000C1F3160141F4000204B15242C5F1200638
:1001A00002FA06F12A411044B3EBD05F23D0C4B168
:1001B000012DA0EBC35009DCF0BC4FF0004202EA75
:1001C000C352DBB200F5000000F013BA400000F1AA
:1001D000807000EBC350A0F1807040EAD1704900FC
:1001E00009E0490841EAC071A0EBC35000F50000E6
:1001F000400800EBC350F0BC00F0F2B961420122AC
:1002000002EB4101001BF6E7F0BC704781F00041B2
:10021000AAE780F00040A7E780EA010210B502F0EB
:100220000043400022D04A001FD0010E01EB1261B2
:10023000C0F35600C2F3560240F4000042F400023C
:10024000A0FB022000047F39140400D0401C50EAB7
:10025000124001D44000491EC2B20C0604EBD0107B
:10026000401C4008802A02D003E0002010BD20F08E
:100270000100002900DA0020184310BD30B480EAE4
:10028000010202F0004530F0004221F0004013D09E
:1002900090B1C30DD40DC2F31601C0F31600E41AD9
:1002A00041F4000140F400027D34914201D3641C0A
:1002B00000E04900002C02DA30BC002070474FF407
:1002C00000000023914201D3891A034340084FEAFA
:1002D0004101F7D151B1914202D14FF0004105E007
:1002E00002D24FF0010101E06FF0010103EBC450B5
:1002F000284430BC00F074B92DE9FE4F81EA0304B4
:1003000004F0004421F0004100944FF0000B23F072
:10031000004350EA01045ED052EA03045BD0C3F309
:100320000A54C1F30A552C44A4F2F3340194A0FBFF
:100330000254C1F3130141F48011C3F3130343F4D6
:10034000801301FB024400FB034E840A970A44EA2F
:10035000815447EA8357A4FB076802958D0A05FB81
:1003600007854FEA932C04FB0C542705029D4FEAA6
:10037000065847EA1637B5EB08056EEB070C870EF3
:10038000920E47EA811742EA8312A7FB0201B6EBFD
:100390000B0164EB00042B0D43EA0C335E1844EBB5
:1003A0001C50DA465146E7FB0201C5F313044FEA3D
:1003B0000B3343EA14534FEA0432019C43EA060329
:1003C000A4F10C040294009CCDE900B400F04EF9B5
:1003D00003B0BDE8F08F00200146F9E7002801DBFB
:1003E000C0F10040002901DBC1F10041814201D38D
:1003F0000120704700207047002801DBC0F1004059
:10040000002901DBC1F10041814201D9012070477F
:100410000020704730B5041E71F1000404DB4FF07A
:100420000044404264EB0101141E73F1000405DB3B
:100430001C464FF00043524263EB0403801A99417B
:1004400001D3012030BD002030BD30B5041E71F154
:10045000000404DB4FF00044404264EB0101141E31
:1004600073F1000405DB1C464FF00043524263EB7E
:100470000403101A8B4101D2012030BD002030BD91
:1004800030B5041E71F1000404DB4FF0004440421B
:1004900064EB0101141E73F1000405DB1C464FF0F0
:1004A0000043524263EB0403101A8B4101D3012035
:1004B00030BD002030BD30B5041E71F1000404DBF6
:1004C0004FF00044404264EB0101141E73F100043C
:1004D00005DB1C464FF00043524263EB0403801AD5
:1004E000994101D2012030BD002030BDC10F80EA0A
:1004F000E0700844CA079623002100F07AB89623DA
:100500000022114600F075B80EB5C10F80EAE07008
:100510000844CA07002140F233438DE80E000A4622
:100520000B4600F0A3F803B000BD00F0004220F03D
:100530000040C10DC0F3160040F400007F2901DA2D
:1005400000207047962903DCC1F19601C84001E004
:1005500096398840002AF4D04042704770B5C1F304
:100560000A5201F000450024C1F3130140F2FF33A9
:1005700041F480119A4201DA002070BD40F2334309
:100580009A42A2F2334203DC524200F019F800E032
:1005900090402C43F1D0404270BD00F0004230F05A
:1005A00000400AD0C10D01F56071C0F3160042EAA7
:1005B0000151C208400711437047002001467047AF
:1005C000202A04DB203A21FA02F00021704721FAA8
:1005D00002F3D040C2F1200291400843194670470F
:1005E0000029A8BF7047401C490008BF20F0010047
:1005F000704710B4B0FA80FC00FA0CF050EA010425
:1006000004BF10BC704749B1CCF1200421FA04F4B6
:1006100011FA0CF118BF012121430843A3EB0C018F
:10062000CB1D4FEA00614FEA102042BF002010BCF2
:10063000704700EBC35010440029A4BF10BC7047A2
:10064000401C490008BF20F0010010BC704710B5E5
:10065000141E73F1000408DA401C41F100019218E5
:100660005B411A4301D120F0010010BD2DE9F04D8E
:1006700092469B4611B1B1FA81F202E0B0FA80F2E3
:100680002032904600F052F804460F4640EA0A0035
:1006900041EA0B0153465A46084313D0114653EA28
:1006A000010019D0C8F140025046FFF789FF054606
:1006B0000E4650465946424600F038F8084305D0E9
:1006C000012004E020463946BDE8F08D00200543B6
:1006D00046EAE0762C4337430A986305E40AA0EB28
:1006E00008000022FD0A44EA47540A3002D50020DF
:1006F0000146E9E7010510196941DDE908450019DE
:100700006941BDE8F04DA2E7064C074D06E0E06800
:1007100040F0010394E8070098471034AC42F6D348
:10072000FFF70AFD484B0008684B0008202A04DB4D
:10073000203A00FA02F1002070479140C2F12003F4
:1007400020FA03F31943904070470000B0B5044607
:1007500000688168C90709D0816821F001018160C2
:1007600000F008FF21688968C90701D10020B0BDE9
:10077000054602E08068C007F8D000F0FBFE411B90
:1007800020680329F6D38168C907F3D0A06A40F036
:100790001000A062E06A40F00100E0620120B0BDFC
:1007A0000146406A826A12F0500F03D0006A026B61
:1007B000084610470168826A42F4007282628968C2
:1007C00001F46021B1F5602F01D1017B11B100F07E
:1007D00005BA00BF816A21F480718162816AC9040F
:1007E00048BF00F0FBB9816A41F00101816200F06D
:1007F000F5B90000406A816A41F040018162C16A36
:1008000041F00401C16200F0EDB90000406A00F05F
:10081000E7B90000B0B582B004460020019021681D
:100820008A68D2074FD1886840F00100886040F2A2
:100830001800C2F2000000684DF68361C4F21B315B
:10084000A0FB0101880C01900198A0B1019801382A
:100850000190019878B1019801380190019850B148
:10086000019801380190019828B101980138019050
:1008700001980028EAD100F07DFE21688968C90747
:100880001CD1054603E000BF8068C0071AD100F004
:1008900071FE411B20680329F6D38168C907F3D193
:1008A000A06A40F01000A062E06A40F00100E0623F
:1008B000002084F82400012002B0B0BD002002B066
:1008C000B0BD00BF002002B0B0BD000005288FBF42
:1008D000002040F22001C2F2000131F81000704700
:1008E000B0B540F22004C2F2000404F10C05284621
:1008F00000F026F84FF4FA7000F00CFD284621466F
:100900000622BDE8B04000F08DBA0000FEE700000E
:1009100040F20810C2F2000000F010BB40F24C1090
:10092000C2F2000000F00ABB70470000082000F08F
:100930000BBD0000EFF3108072B600BFFEE70000B1
:1009400070B582B004460020019094F8240001287C
:1009500004D10225284602B070BD00BF012084F8F2
:1009600024002046FFF7F2FE2046FFF753FF05461E
:10097000002867D1A06A41F2021188430230A062C8
:1009800040F21800C2F200000668022000F0EAFE01
:10099000B6FBF0F0400001900198A0B10198013839
:1009A0000190019878B1019801380190019850B1F7
:1009B000019801380190019828B1019801380190FF
:1009C00001980028EAD12068816841F0080181601F
:1009D00000F0D0FD21688A6812070DD4886840F0C5
:1009E0000400886000F0C6FD21688968490713D4B7
:1009F00001206FF0030121E0064602E0886800074D
:100A0000ECD500F0B7FD801B21680B28F6D3886871
:100A10000007F3D50EE000BF064602E080684007FD
:100A2000E6D500F0A7FD811B20680B29F6D381686D
:100A30004907F3D5012510206FF01201A26A114079
:100A40000843A062002084F82400284602B070BD4C
:100A500010B581B00022009290F82420012A03D121
:100A60000221084601B010BD4B680122062B80F818
:100A7000242017D8D0F800C003EB83035A1F1F238C
:100A8000DCF834E003FA02F40B682EEA040403FAFB
:100A900002F22243CCF83420092B03EB430219D98C
:100AA00036E000BFD0F800C00C2B03EB83021DD84A
:100AB000233A1F23DCF830E003FA02F40B682EEA35
:100AC000040403FA02F22243CCF83020092B03EB92
:100AD00043021DD8DCF81030072489689440A343F2
:100AE00091401943CCF81010002130E0413A1F2307
:100AF000DCF82CE003FA02F40B682EEA040403FA93
:100B000002F22243CCF82C20092B03EB4302E1D95B
:100B1000DCF80CE01E3A0724896894402EEA0404AD
:100B2000914023F001022143102ACCF80C100DD182
:100B300042F20841C4F20101A1F1080294450DD02E
:100B4000816A41F020018162012100E00021002240
:100B500080F82420084601B010BD00BF0A681202C8
:100B600030D40A68102B42F400020A602CD140F203
:100B70001801C2F2000109684DF68362C4F21B320B
:100B8000A1FB0212910C01EB810149000091009937
:100B9000E1B10099013900910099C9B10099013979
:100BA00000910099B1B1009901390091009999B172
:100BB000009901390091009900294FF00001E8D116
:100BC000C5E700BF0021C2E70021C0E70021BEE762
:100BD0000021BCE70021BAE70021B8E77047000018
:100BE0007047000070470000B0B5002800F0B280E8
:100BF0000446806A20B121688868C0070BD114E0E0
:100C00000020E06284F82400204600F0A5F8216866
:100C10008868C00709D0886820F00100886000F06B
:100C2000A9FC21688A68D20730D1A06AC00644D4E2
:100C3000A06A41F2021290430230A062E36981F09F
:100C4000804080F49E3083F44022104308BF4FF46C
:100C50000023D4E9010243EA000C531EB3FA83F3E4
:100C60005D091346B2F5807F18BF2B02207D257BDE
:100C700001284CEA450030D135B3A56A45F020057E
:100C8000A562E56A45F00105E56226E0054602E059
:100C90008868C007C9D000F06DFC401B216803289C
:100CA000F6D38868C007F3D0A06A40F01000A062B5
:100CB000E06A40F00100E062A06AA06A40F0100023
:100CC000A0620120B0BD00BFD4F818C04EF60005E8
:100CD000CFF6FF7505EB4C352B434D68B2F5807FA1
:100CE00025F4694543EA05034B608B684FF2FD75B7
:100CF000CFF6E17503EA050343EA00038B6001D0F8
:100D0000012A07D122690023CFF6F07303EB0252C8
:100D100001E000BF0022CB6A23F470031A43CA62C9
:100D2000896840F6FE62CFF61F721140814207D1FA
:100D30000020E062A16A012262F30101A162B0BD5C
:100D4000A06A40F0100020F00200A062E06A40F0CB
:100D50000100E0620120B0BD2DE9F04186B040F60F
:100D600000050446C4F20105006805F5E0510027BE
:100D700088420597049703D006B0BDE8F08100BF14
:100D800041F21800C4F20200016802AE41F40071A1
:100D9000016001684FF0030801F4007101910199AD
:100DA000016841F010010160016801F0100101913A
:100DB0000199016841F0040101600068314600F0CA
:100DC0000400019001982720029005F50060CDF8FD
:100DD0000C8000F0C5FA3020CDE9020828463146E3
:100DE00000F0BEFA40F208150820C2F20005C4F275
:100DF00002004FF48072C5E9000705F11000802160
:100E00004FF480632026CCC02846C5E9027100F06B
:100E1000E3F9002818BFFFF78DFD25626C6206B06C
:100E2000BDE8F08170B515460446006842F6000240
:100E3000C4F2010290420E4605D042F20041C4F2D3
:100E40000101884209D142F20440C4F20100006865
:100E500010F4702F1CBF012070BD94F824000128ED
:100E600004BF022070BD012084F824002046FFF753
:100E7000D1FC18B1002184F8241070BD42F2044066
:100E80002168A26AC4F2010040F601739A4300F59A
:100E90007F7302F580729942A26243D0A06A20F467
:100EA0008010A0624868400504D5A06A012262F360
:100EB0000D30A062A26A0020D2044FF0000244BFAD
:100EC000E26A22F00602E26284F82400206A40F21C
:100ED000A172C0F6000240F60D0340F2F57C00F16D
:100EE000280EC0F60003C0F6000C8EE80C106FF060
:100EF00002020A608A682B4642F480728A604C3192
:100F0000324600F0B9F92068816801F460228168F6
:100F1000B2F5602F0CBF41F4A00141F48011816053
:100F2000002070BD026812F4702FB7D0A26A42F49C
:100F30008012A26200684005BCD5B6E710B5D0E9C2
:100F40000FE3D0F800C0DEF80020DCF80010DA4033
:100F500054072DD511F004042AD0DCF800108906BE
:100F600005D4DCF8001021F00401CCF800100422B4
:100F7000C4F2020202F17C018C454DD940F20841D5
:100F8000C4F202018C4500F0B18040F21C41C4F271
:100F900002018C4500F0AE8040F23041C4F2020103
:100FA0008C4540F0AB804FF48061C2F80014F9E04A
:100FB000940747D511F0020444D0DCF800108906EC
:100FC00008D4DCF8001021F00A01CCF8001001214F
:100FD00080F821100422C4F2020202F17C018C4547
:100FE0004ED940F20841C4F202018C4500F0B680AF
:100FF00040F21C41C4F202018C4500F0B38040F283
:101000003041C4F202018C4540F0B0804FF40071D1
:10101000C2F80014D8E000BF4321C4F202018C459D
:1010200044DD6B21C4F202018C4551DC4421C4F241
:1010300002018C4500F0A6805821C4F202018C45C3
:1010400068E000BF120740F1C58011F0080108BF39
:1010500010BDDCF8001021F00E01CCF800100121C9
:1010600001FA03F2CEF80420816380F82110016BAD
:101070000022002980F8202040F09680AAE000BFDE
:101080004321C4F202018C4548DD6B21C4F2020108
:101090008C4555DC4421C4F202018C4500F0888067
:1010A0005821C4F202018C4576E000BF0821C4F249
:1010B00002018C456AD01C21C4F202018C456FD01C
:1010C0003021C4F202018C4524D14FF4806168E0E4
:1010D0006C21C4F202018C455AD08021C4F2020175
:1010E0008C4517D14FF080615BE000BF0421C2F84E
:1010F000001457E04021C2F8001453E002F5886361
:101100004FF480219C4508BF4FF48041C2F8001481
:1011100048E000BF4FF4802143E000BF0821C4F243
:1011200002018C4548D01C21C4F202018C4549D0F3
:101130003021C4F202018C452ED14FF4007142E0FF
:101140006C21C4F202018C4538D08021C4F2020126
:101150008C4521D14FF0007135E000BF0221C2F86B
:10116000001431E02021C2F800142DE002F588635C
:101170004FF400319C4508BF4FF40051C2F80014F1
:1011800022E000BF4FF480410BE000BF042108E0E3
:101190004FF4800105E000BF4FF4003113E000BFC1
:1011A00040211160C16AA9B1BDE81040084700BFE5
:1011B0004FF4005107E000BF022104E04FF400119A
:1011C00001E000BF20211160816A0022002980F81F
:1011D0002020E9D110BD0000014600284FF0010099
:1011E00008BF70472DE9F04740F2000CC4F2020C32
:1011F0000A684FF6F8330CF5816ECBF6FD73724535
:1012000038BF03F5806303EB020E4CF6CD43CCF6FA
:10121000CC43AEFB033E6FF003060CF5806506EA97
:101220009E06D1E901A9D1F80C803CBF0025C4F28B
:101230000205C1E90F56022681F82160166843F6BF
:10124000F075AE4346EA0A06D1E9045746EA0906B4
:1012500046EA0806D1E906432E43374327433B437A
:10126000136000228A6381F8210081F82020002089
:10127000BDE8F04770470000F0B590F820C0BCF121
:10128000010F32D04FF0010E80F820E090F821C01D
:10129000BCF1010F26D14FF0020C80F821C04FF0B5
:1012A000000CC0F838C0D0E900C4C56AC66BDCF8D1
:1012B0000070102C27F00107CCF80070006C0EFABB
:1012C00000F070600846CCF8043004BF10460A46AF
:1012D000CCF80800CCF80C20DCF8000045B140F058
:1012E0000E000DE0002180F820100220F0BD00BFAC
:1012F00020F00400CCF80000DCF8000040F00A0008
:10130000CCF80000DCF8000040F00100CCF8000050
:101310000020F0BDB0B5044600F02CF9054640F2BF
:101320000C00C2F200000078611C18BF044400BF2A
:1013300000F020F9401BA042FAD3B0BD082818BF26
:10134000704702F0FBBE000040F21441C4F20101FC
:101350000A68024214BF08607047FFF7EFBF000041
:101360002DE9F04F82B0D1F800C0BCF1000F00F0C1
:10137000F180A0F1804241F60045A2F58432C4F22A
:10138000010540F2004E4FEAB2240627A842C4F2FB
:10139000010E08BF0527052C4FF000044FF001088F
:1013A0004FF00F034FF0000A4FF0000B38BF4FEA29
:1013B000B22700970AE000BFD1F800C00AF1010A85
:1013C0003CFA0AF204F1040400F0C48008FA0AF9B5
:1013D0001CEA090FF0D04E684FF6FF72C1F21002FE
:1013E000964211DC122E55D8DFE806F0340A444844
:1013F000545454545454545454545454544C50000D
:10140000D1F80CB046E000BF4FF6FF72C1F22102E6
:1014100096420FDC0022C1F2110296421AD000223D
:10142000C1F21202964215D00022C1F22102964268
:1014300010D02FE00022C1F2220296420AD00022F0
:10144000C1F23102964205D00022C1F23202964228
:1014500020D100BF8A684AB1012A14BFC0F8149095
:10146000C0F810904FF0080B14E000BF4FF0040BD1
:1014700010E000BFCA6802F1080B0BE04FF0000B50
:1014800008E000BFCA6802F1040B03E0CA6802F179
:101490000C0B00BF22460646BAF1080F24BF203AC3
:1014A0000436376803FA02F5AF430BFA02F23A4307
:1014B0003260CA79D2067FF57FAF41F21807C4F2D5
:1014C00002073A684FF6084342F001023A603A6870
:1014D000CFF6FF7302F001020192019A2AF0030293
:1014E00072440F25D75804F00C06B540AF43009D59
:1014F00005FA06F63743D7504E6840F20C45F20223
:10150000DEF8082054BF22EA090242EA0902CEF8B6
:101510000820C4F201052A68B70254BF22EA090272
:1015200042EA09022A60DEF80420B70354BF22EA27
:10153000090242EA0902CEF804200F23DEF8002057
:10154000F70354BF22EA090242EA0902CEF800205A
:1015500032E700BF02B0BDE8F08F000080680840AD
:1015600018BF012070470000002A08BF090401616C
:101570007047000040F26040C2F20000006870470F
:1015800040F20C0040F26041C2F20000C2F20001E1
:1015900000780A68104408607047000080B542F285
:1015A0000000C4F20200016841F010010160032054
:1015B00000F0C8F80F2000F005F800F061F80020F6
:1015C00080BD0000B0B586B041F21C01C4F202013A
:1015D0000A68044642F020020A60096801A801F086
:1015E000200101910199694600F0AAFA049D002D9D
:1015F00018BF012500F0C6FA4DF68361A840C4F279
:101600001B31A0FB01014FF0FF3000EB914140F294
:10161000403041F20042C2F20000C4F2000240F247
:10162000E7330025C0E90021C0E902530561856167
:1016300000F0BAFD054618B1284606B0B0BD00BF9F
:1016400040F24030C2F2000000F0F4FE05460028EF
:10165000F2D1372000F036F80F2C0DD83720214674
:101660000022002500F042F840F21000C2F2000013
:101670000460284606B0B0BD0125284606B0B0BDBE
:1016800082B041F21800C4F202000168022241F067
:1016900001010160016801F00101019101994168B6
:1016A00041F080514160406800F080500090009807
:1016B0000420C4F20100016862F31A61016002B003
:1016C00070470000002848BF7047C1B200F01F00FB
:1016D000012202FA00F04EF20012CEF2000242EABB
:1016E000D10121F0030108607047000010B54EF6EB
:1016F0000C5CCEF2000CDCF80030C3F3022E8EF04E
:101700000704042C28BF0424BEF103034FF0FF3E5E
:101710000EFA04F438BF0023A14399400EFA03F3F4
:101720009A43114300F00F0200F160430901043AAB
:1017300003F564436244002848BF02F10C031970AA
:1017400010BD00004EF60C51CEF200010A684FF6B3
:10175000FF031A4060F30A2242F0806040F0FD70FF
:101760000860704780B5411E0F294FF0000039D83E
:10177000DFE801F00C2A38083838380838383838AB
:101780003838383ABDE8804000F024BA41F204000D
:10179000C4F20200C16940F202320A40B2F5817F10
:1017A00004BF4FF4004080BD01F44071B1F5407FAB
:1017B0004CD0B1F5007F51D1006A49F64041800715
:1017C00001EAE07080BD00BF00F0F0F941F20401D1
:1017D000C4F2020109680222C1F3813102EB410126
:1017E000B0FBF1F080BD00BF41F20401C4F2020180
:1017F0000A6851F8040CC0015CBF002080BDC2F330
:10180000834017A3185CD20306D440F60012C0F23E
:101810003D0250430CE000BF0A6815A3C2F34042EA
:101820009A5C41F20023C0F27A03B3FBF2F2504318
:101830000968490248BF80BD4AF6AB214000CAF69C
:10184000AA21A0FB0101480880BD00BF50F8040C8C
:101850004FF22441800301EAE07080BD002080BD8A
:1018600002030405060708090A0B0C0D0E0F1010E1
:10187000010200002DE9F04182B00446007841F2F7
:101880001C06C007C4F202064AD0306810F0805827
:1018900008D1306840F080503060306800F08050EF
:1018A0000190019847F20007C4F200073868C005AC
:1018B00012D4386840F480703860FFF75BFE05464C
:1018C0003868C00508D4FFF755FE401B6428F7D9D7
:1018D000032002B0BDE8F081706810F4407012D0AF
:1018E000616801F4407188420DD0706840F2404256
:1018F000C4F24222012320F4407113600023C00788
:10190000136071602AD17068616820F440700843E8
:10191000B8F1000F706003D1306820F08050306063
:101920002068810707D556F8181CA26821F44041A9
:10193000114346F8181CC00604D4002002B0BDE8CC
:10194000F08100BF56F8180C616920F4800008434C
:1019500046F8180C002002B0BDE8F081FFF70AFE3F
:10196000054641F2883700BF70688007CBD4FFF787
:1019700001FE401BB8424FF00300F5D9EBE7000031
:101980002DE9F04381B0002800F0858042F2000884
:10199000C4F202080446D8F800000D4600F0070023
:1019A00088420CD2D8F8000020F007002843C8F87D
:1019B0000000D8F8000000F00700A8426BD12068B2
:1019C00041F204098107C4F2020917D5410705D580
:1019D000D9F8001041F4E061C9F80010010705D5FD
:1019E000D9F8001041F46051C9F80010D9F800107E
:1019F000A26821F0F0011143C9F80010C00741D1DD
:101A0000D8F8000000F00700A8420CD9D8F8000070
:101A100020F007002843C8F80000D8F8000000F0C4
:101A20000700A84237D12068410707D5D9F8001030
:101A3000E26821F4E0611143C9F80010000708D5FD
:101A4000D9F80000216920F4605040EAC100C9F8CB
:101A50000000D9F8002002F00C00082841F2002014
:101A6000C0F27A0050D144F63633C2F38341C0F657
:101A70000003595CD2033BD440F60010C0F23D0095
:101A8000484341E0606802280AD001282AD159F869
:101A9000041C890308D4012001B0BDE8F08300BF15
:101AA00059F8041C8901F6D5D9F8001021F003017A
:101AB0000843C9F80000FFF75DFD064641F288378C
:101AC000D9F80000616800F00C00B0EB810F97D0EE
:101AD000FFF750FD801BB842F2D9032001B0BDE8EA
:101AE000F08300BF59F8041C8907D4D5DCE700BF98
:101AF000D9F8002044F63433C2F34042C0F6000364
:101B00009A5C4843B0FBF2F0D9F8001044F61C325E
:101B1000C1F30311C0F60002515C40F2180220FA32
:101B200001F140F21000C2F200000068C2F20002AF
:101B30001160FFF747FD002001B0BDE8F083000011
:101B40000F22026041F20402C4F20202136803F0A1
:101B500003034360136803F0F0038360136803F426
:101B6000E063C36012684FF4E06303EAD2020261EB
:101B700042F20000C4F20200006800F007000860B2
:101B80007047000040F2180041F20401C2F2000068
:101B9000C4F202010068096844F62C32C1F3022144
:101BA000C0F60002515CC8407047000040F21800C7
:101BB00041F20401C2F20000C4F2020100680968A7
:101BC00044F62C32C1F3C221C0F60002515CC84079
:101BD0007047000041F2040CC4F2020CDCF8003043
:101BE00003F00C00082841F20020C0F27A0018BF70
:101BF000704744F63631C3F38342C0F600018A5C75
:101C0000D90305D440F60010C0F23D0050437047A0
:101C1000DCF8001044F63433C1F34041C0F6000351
:101C2000595C5043B0FBF1F0704700002DE9F041E2
:101C300082B0002868D00446007841F20006C00750
:101C4000C4F2020625D0706800F00C0004281BD0F6
:101C5000706800F00C00082802D17068C00313D42B
:101C60006068002800F06881B0F5A02F00F07C814A
:101C7000B0F5803F00F07C81306820F48030306027
:101C8000306820F4802076E13068800301D56068F8
:101C9000D0B32078800718D5706810F00C0F07D0EB
:101CA000706800F00C0008286ED17068C0036BD417
:101CB0003068800702D52069012825D13068616924
:101CC00020F0F80040EAC1003060207800071FD4FF
:101CD0002078400732D4E56995B1706800F00C00B7
:101CE000082840F08F80012D0ED07068216A00F422
:101CF00080328A4208D1616A00F47010884203D1B0
:101D0000002002B0BDE8F081012002B0BDE8F08102
:101D1000A069002862D00020C4F242200121C0F84E
:101D20008014FFF727FC0546706A800700F18C805D
:101D3000FFF720FC401B0228F6D92AE1F06910F0D9
:101D4000805808D1F06940F08050F061F06900F0EF
:101D500080500090009847F20007C4F200073868EE
:101D6000C00529D4386840F480703860FFF702FC61
:101D7000054600BF3868C0051ED4FFF7FBFB401BBB
:101D80006428F7D905E100BF2069002840F200006F
:101D9000C4F2422000F0828001210160FFF7EAFBDB
:101DA000054600BF306880073FF588AFFFF7E2FBCC
:101DB000401B0228F6D9ECE0E068002800F08080A3
:101DC000052800F09780012800F09880306A20F004
:101DD00001003062306A20F0040092E00020C4F27A
:101DE00042200021C0F88014FFF7C4FB054600BF65
:101DF000706A80077FF56CAFFFF7BCFB401B0228C1
:101E0000F6D9C6E00027C4F2422700203866FFF763
:101E1000B1FB022D05460BD13068800140F1BE8038
:101E2000FFF7A8FB401B02284FF00300F4D968E736
:101E3000306880017FF564AFFFF79CFB401B0228F0
:101E40004FF00300F4D95CE740F21800C2F2000042
:101E5000006844F6D351C1F26201A0FB0101480AB7
:101E6000019000BF00BF0198411E002801913FF47E
:101E70002FAF00BF0198411E002801913FF428AF09
:101E800000BF0198411E002801913FF421AF00BF1F
:101E90000198411E00280191E4D119E70021016059
:101EA000FFF768FB054600BF306880077FF50DAF80
:101EB000FFF760FB401B02284FF00300F4D920E736
:101EC000306A20F001003062306A20F00400306295
:101ED000FFF750FB054641F2883700BF306A8007A4
:101EE00020D5FFF747FB401BB8424FF00300F5D960
:101EF00007E700BF306A40F004003062306A40F00B
:101F000001003062FFF736FB054641F2883700BF1B
:101F1000306A800706D4FFF72DFB401BB842F7D983
:101F200037E000BFB8F1000F7FF4D5AEF06920F0C4
:101F30008050F061CFE600BF306820F48030306020
:101F4000306820F480203060FFF714FB054600BFA6
:101F5000306880037FF59DAEFFF70CFB401B6428C3
:101F60004FF00300F4D9CCE6306840F480203060B4
:101F7000306840F480303060FFF7FCFA054600BF5F
:101F8000306880033FF585AEFFF7F4FA401B642804
:101F9000F6D9032002B0BDE8F08100BF206AB0F599
:101FA000803F05D17168A26821F40031114371604E
:101FB0007168626A21F47411114308437060012052
:101FC0003866FFF7D7FA0446306880013FF598AECF
:101FD000FFF7D0FA001B02284FF00300F4D990E677
:101FE0007047000070470000B0B590F83C20012A0F
:101FF00004BF0220B0BD01F108053CCDD1E900CEFF
:1020000023F47C5322F470521A432EF4F0431A4303
:102010002CF4E0431A4324F4C0431A432A43C96909
:1020200022F48042036811435964002180F83C1077
:102030000846B0BD10B590F83C20012A4FF00202CE
:102040003FD080F83D200268D2F804E0D2F808C002
:102050000C682EF07003234340F6FF34C4F20004F2
:10206000A242536010DCB2F1804F1FD040F2004317
:10207000C4F200039A4219D040F60003C4F20003F0
:102080009A4213D017E000BF40F60043C4F20003A9
:102090009A420BD043F20043C4F201039A4205D0A6
:1020A00042F60043C4F201039A4204D149682CF07D
:1020B0008003194391600121002280F83D1080F8CF
:1020C0003C20104610BD000041B1082910D0042961
:1020D00014BF00F1450200F143020BE090F84220EA
:1020E000012A1CBF01207047022280F8422013E021
:1020F00000F144021278012A1CBF0120704702221D
:10210000082907D0042914BF80F8452080F843200F
:1021100002E000BF80F84420006801F01F010422A3
:10212000036A02FA01F123EA01020262026A114320
:102130000162416C40F6FF32C4F2000241F40041FA
:102140009042416410DCB0F1804F1FD040F200415A
:10215000C4F20001884219D040F60001C4F2000127
:10216000884213D019E000BF40F60041C4F20001DC
:1021700088420BD043F20041C4F20101884205D0ED
:1021800042F60041C4F20101884206D1816801F0A3
:102190000701062904BF00207047016841F00101D2
:1021A0000160002070470000002804BF0120704734
:1021B00010B5044690F83D0028B9002084F83C0092
:1021C000204600F085F8022084F83D00206840F6A3
:1021D000FF330268C4F2000343F2004C9842C4F299
:1021E000010C21DCB0F1804F2CD040F20041C4F250
:1021F0000001884226D040F60001C4F20001884266
:1022000020D0984224DCB0F1804F2FD040F2004122
:10221000C4F20001884229D040F60001C4F2000156
:10222000884223D026E000BF40F60041C4F20001FE
:10223000884207D0604505D042F60041C4F2010152
:102240008842DED1A16822F070020A439842DADDAA
:1022500040F60041C4F20001884207D0604505D035
:1022600042F60041C4F20101884203D1216922F4FF
:1022700040720A43A36922F08001D4F804E0E268C6
:10228000194360450160C262C0F828E005D042F6FB
:102290000041C4F20101884201D161690163012159
:1022A0004161002084F8461084F83E1084F83F1005
:1022B00084F8401084F8411084F8421084F84310E8
:1022C00084F8441084F8451084F83D1010BD0000D7
:1022D00080B582B0006840F6FF31C4F20001884248
:1022E0002ADD42F6FF31C4F20101884242DC40F6A9
:1022F0000041C4F2000188425AD041F20001C4F208
:102300000001884240F0848041F21C00C4F20200C7
:102310000168002241F0100101600068002100F016
:102320001000019001983620FFF7E0F9362002B046
:10233000BDE88040FFF7C6B9B0F1804F48D040F209
:102340000041C4F20001884264D040F60001C4F2AA
:10235000000188425CD141F21C00C4F20200016815
:1023600041F004010160006800F004000190019850
:1023700002B080BD43F20041C4F20101884237D06F
:1023800042F60041C4F20101884241D141F21C00F1
:10239000C4F2020050F8041C41F4006140F8041C2F
:1023A00050F8040C00F400600190019802B080BD68
:1023B00041F21C00C4F20200016841F00801016012
:1023C000006800F008000190019802B080BD00BFD5
:1023D00041F21C00C4F20200016841F001010160F9
:1023E000006800F001000190019802B080BD00BFBC
:1023F00041F21C00C4F2020050F8041C41F40051E8
:1024000040F8041C50F8040C00F4005001900198AE
:1024100002B080BD41F21C00C4F20200016841F02C
:1024200002010160006800F002000190019802B012
:1024300080BD000090F83D1001291CBF01207047AD
:10244000022180F83D10006840F6FF32C168C4F2F6
:102450000002904241F00101C1600FDCB0F1804FF9
:102460001ED040F20041C4F20001884218D040F66C
:102470000001C4F20001884212D018E040F6004189
:10248000C4F2000188420BD043F20041C4F20101C2
:10249000884205D042F60041C4F20101884206D1CB
:1024A000816801F00701062904BF00207047016818
:1024B00041F00101016000207047000080B590F8F4
:1024C0003C20012A4FF0020200F0C28080F83D203B
:1024D000D0F800C04FF67772DCF8083023EA020229
:1024E000CCF808200B684F2B28DC1F2B44DD202B59
:1024F00045D0302B43D0402B40F0AC80D1F804E0E5
:10250000C968DCF82030DCF8202022F00102CCF889
:102510002020DCF8182022F0F00242EA011123F01A
:102520000A0242EA0E02CCF81810CCF82020DCF89F
:10253000081041F0470121F0300180E06F2B27DDCA
:10254000B3F5005F48D0B3F5805F7AD0702B40F0D0
:102550008180D1E901E3C968DCF8082043EA0E0371
:1025600022F47F4243EA01211143CCF80810DCF841
:10257000081041F0770162E00BB1102B6AD1DCF852
:10258000081021F07001194341F0070157E000BF26
:10259000502B35D0602B5DD1D1F804E0C968DCF850
:1025A0002030DCF8202022F01002CCF82020DCF8CB
:1025B000182022F4704242EA013123F0A00242EADC
:1025C0000E12CCF81810CCF82020DCF8081041F0DE
:1025D000670121F0100132E0D1E901E3C968DCF8BC
:1025E000082043EA0E0322F47F4243EA012111430B
:1025F000CCF80810DCF8081041F480411FE000BF5F
:10260000D1F804E0C968DCF82030DCF8202022F0A2
:102610000102CCF82020DCF8182022F0F00242EA77
:10262000011123F00A0242EA0E02CCF81810CCF88D
:102630002020DCF8081041F0570121F02001CCF8EF
:1026400008100022012180F83D10002180F83C1084
:10265000104680BD0122F5E77047000010B5016803
:1026600004460869800744BFC8685FEA807039D4AF
:102670000869400744BFC8685FEA40703ED40869F3
:10268000000744BFC8685FEA007045D40869C00607
:1026900044BFC8685FEAC0604AD40869C0071CBF6D
:1026A000C8685FEAC07051D10869000644BFC868B5
:1026B0005FEA006052D40869400644BFC8685FEA18
:1026C000406053D40869800646BFC8685FEA8060EE
:1026D00010BD6FF0200220460A61BDE81040FFF7F0
:1026E00081BC00BF6FF0020008610120207788697B
:1026F000800743D02046FFF7AFFF45E06FF00400AE
:10270000086102202077886910F4407F40D020467D
:10271000FFF7A2FF42E000BF6FF00800086104204D
:102720002077C86980073DD02046FFF795FF3FE03E
:102730006FF01000086108202077C86910F4407F0E
:102740003AD02046FFF788FF3CE000BF6FF0010061
:102750000861204600F0FEFC2168A5E76FF08000CC
:1027600008612046FFF73CFC2168A4E76FF04000B9
:102770000861204600F0F8FC2168A3E7204600F03D
:1027800015FA204600F072FC2168002020776FE7E0
:10279000204600F00BFA204600F068FC216800207B
:1027A00020776CE7204600F001FA204600F05EFC3E
:1027B00021680020207769E7204600F0F7F92046DD
:1027C00000F054FC21680020207766E770B586B0E1
:1027D000006840F6FF31C4F2000188424FF000016A
:1027E000CDE90411CDE902112EDCB0F1804F6BD0A0
:1027F00040F20041C4F20001884277D040F6000167
:10280000C4F20001884240F0D28041F21800C4F2C4
:1028100002000168022541F008010160006802A978
:1028200000F00800019001984020029003200590DC
:1028300040F60000C4F2010000F5806420460395D4
:10284000FEF78EFD80203BE040F60041C4F200011F
:10285000884277D043F20041C4F20101884200F07F
:10286000898042F60041C4F20101884240F09F8015
:1028700041F21800C4F20200016840F6000441F081
:10288000080101600168C4F2010401F0080101912E
:1028900001990168022541F004010160006802A964
:1028A00000F00400019001984FF460400290032072
:1028B000059004F580600395FEF752FD4FF400602B
:1028C0000290039505956EE041F21800C4F20200F3
:1028D000016841F0040101600068022100F0040079
:1028E000019001980320029003913DE041F218000D
:1028F000C4F20200016840F6000441F004010160E6
:102900000168C4F2010401F0040101910199016818
:10291000022541F0080101600068032600F008006C
:1029200001900198C020029002A9204603950596C7
:10293000FEF716FD0120CDE90205059604F5806439
:1029400031E000BF41F21800C4F20200016841F01A
:1029500004010160006800F00400019001980C205F
:10296000029002200390032040F600040590C4F278
:10297000010418E041F21800C4F20200016841F0BD
:1029800010010160006800F01000019001984020E3
:102990000290022003900320059040F60000C4F24C
:1029A000010000F5006402A92046FEF7D9FC06B03C
:1029B00070BD0000F0B590F83C30012B04BF022040
:1029C000F0BD4FEAB202032A00F2EA80DFE802F02B
:1029D000023C7AB8026843F20045146A136A24F094
:1029E000020423F0010313625368D2F818E08E68E2
:1029F000D1F800C0C4F20105AA4244EA060405D099
:102A000042F60046C4F20106B24205D1CE6824F077
:102A10000C0426F004063443AA4205D042F60045D1
:102A2000C4F20105AA4205D1D1E9055623F4407349
:102A30002B4333432EF0730646EA0C06536096612F
:102A4000496851631462A5E0026843F20045146AC4
:102A5000136A24F0200423F0100313625368D2F8A1
:102A600018C08E68D1F800E0C4F20105AA4244EA19
:102A7000061405D042F60046C4F20106B24207D160
:102A8000CE686FF0400724F0C00407EA061634430E
:102A9000AA4205D042F60045C4F20105AA4206D179
:102AA000D1E9055623F44063354343EA85032CF40A
:102AB000E64747EA0E2753609761496891631462BD
:102AC00068E000BF026843F20045146A136A24F408
:102AD000007423F4807313625368D2F81CC08E68AC
:102AE000D1F800E0C4F20105AA4244EA062405D068
:102AF00042F60046C4F20106B24207D1CE6840F267
:102B0000FF47360224F44064BE433443AA4205D052
:102B100042F60045C4F20105AA4206D1D1E90556A4
:102B200023F44053354343EA05132CF0730747EA77
:102B30000E075360D7614968D16314622AE000BF71
:102B4000026843F20046D2F820C0136AC4F20106BC
:102B500023F4805313625368D4690D68D1F808E0F8
:102B6000B24205D042F60046C4F20106B24204D198
:102B70004E6923F4804343EA861324F4E64646EA8A
:102B800005265360D6612CF40057496847EA0E3396
:102B9000116413620021002280F83C200846F0BD39
:102BA0000121002280F83C200846F0BD704700005B
:102BB000002804BF0120704710B5044690F83D007E
:102BC00028B9002084F83C00204600F085F8022057
:102BD00084F83D00206840F6FF330268C4F2000329
:102BE00043F2004C9842C4F2010C21DCB0F1804F5A
:102BF0002CD040F20041C4F20001884226D040F6B9
:102C00000001C4F20001884220D0984224DCB0F1D7
:102C1000804F2FD040F20041C4F20001884229D0F9
:102C200040F60001C4F20001884223D026E000BF34
:102C300040F60041C4F20001884207D0604505D04B
:102C400042F60041C4F201018842DED1A16822F0BF
:102C500070020A439842DADD40F60041C4F20001F6
:102C6000884207D0604505D042F60041C4F2010118
:102C7000884203D1216922F440720A43A36922F0F9
:102C80008001D4F804E0E268194360450160C26243
:102C9000C0F828E005D042F60041C4F201018842A4
:102CA00001D16169016301214161002084F846106E
:102CB00084F83E1084F83F1084F8401084F84110E6
:102CC00084F8421084F8431084F8441084F84510C6
:102CD00084F83D1010BD0000704700002DE9F04160
:102CE00090F83C30012B04BF0220BDE8F0814FEA90
:102CF000B202032A00F21C81DFE802F0024690DAF9
:102D0000036843F200461D6A1A6A25F0020522F0A4
:102D100001021A621A465C6852F818EF8F68D1F8FF
:102D200000C0C4F20106B34245EA070505D042F6E9
:102D30000047C4F20107BB4205D1CF6825F00C055E
:102D400027F004073D43B34205D042F60046C4F2E3
:102D50000106B34205D1D1E9056724F44074344338
:102D60003C432EF0730747EA0C075C609F614F6895
:102D700009695F631D629F6947F008079F619F694A
:102D800027F004079F61C9E0036843F200461D6A0B
:102D90001A6A25F0200522F010021A621A46D3F8AA
:102DA00004C052F8188F8F68D1F800E0C4F2010611
:102DB000B34245EA071505D042F60047C4F20107C1
:102DC000BB4207D1CF686FF0400425F0C00504EA8C
:102DD00007142543B34205D042F60044C4F201046F
:102DE000A34206D1D1E905462CF44067264347EAC1
:102DF000860C28F4E64444EA0E27C3F804C09F6119
:102E00004F6809699F631D629F6947F400679F616E
:102E10009F6927F480679F617FE000BF036843F2EA
:102E200000461D6A1A6A25F4007522F480721A623F
:102E30001A46D3F804C052F81CEF8F68D1F800800E
:102E4000C4F20106B34245EA072505D042F6004721
:102E5000C4F20107BB4208D1CF6840F2FF443F02F1
:102E600025F4406527EA04042543B34205D042F621
:102E70000044C4F20104A34206D1D1E905462CF472
:102E80004057264347EA061C2EF0730747EA080717
:102E9000C3F804C0DF614F680969DF631D62DF6941
:102EA00047F00807DF61DF6927F00407DF6135E0DD
:102EB000036843F20047D3F820C01A6AC4F201073E
:102EC00022F480521A621A465C6852F81C5FD1F8EC
:102ED00000E08E68BB4205D042F60047C4F201070D
:102EE000BB4204D14F6924F4804444EA87142CF493
:102EF000005747EA063725F4E64646EA0E265C60A8
:102F0000DE614E6809691E641F62DF6947F400676D
:102F1000DF61DF6927F48067DF6109021368194305
:102F200011600021002280F83C200846BDE8F081B5
:102F30000121002280F83C200846BDE8F081000015
:102F4000002804BF0120704710B5044690F83D00EA
:102F500028B9002084F83C00204600F085F80220C3
:102F600084F83D00206840F6FF330268C4F2000395
:102F700043F2004C9842C4F2010C21DCB0F1804FC6
:102F80002CD040F20041C4F20001884226D040F625
:102F90000001C4F20001884220D0984224DCB0F144
:102FA000804F2FD040F20041C4F20001884229D066
:102FB00040F60001C4F20001884223D026E000BFA1
:102FC00040F60041C4F20001884207D0604505D0B8
:102FD00042F60041C4F201018842DED1A16822F02C
:102FE00070020A439842DADD40F60041C4F2000163
:102FF000884207D0604505D042F60041C4F2010185
:10300000884203D1216922F440720A43A36922F065
:103010008001D4F804E0E268194360450160C262AF
:10302000C0F828E005D042F60041C4F20101884210
:1030300001D16169016301214161002084F84610DA
:1030400084F83E1084F83F1084F8401084F8411052
:1030500084F8421084F8431084F8441084F8451032
:1030600084F83D1010BD000070470000704700005C
:1030700041B1082910D0042914BF00F1410200F128
:103080003F020BE090F83E20012A1CBF0120704750
:10309000022280F83E2013E000F140021278012A5B
:1030A0001CBF012070470222082907D0042914BF41
:1030B00080F8412080F83F2002E000BF80F84020E7
:1030C000006801F01F010122036A02FA01F123EAFC
:1030D00001020262026A114340F6FF32C4F20002AA
:1030E000904201620EDCB0F1804F25D040F20041E9
:1030F000C4F2000188421FD040F60001C4F2000172
:1031000018E000BF40F60041C4F20001884213D02D
:1031100043F20042C4F2010242F600419042C4F27E
:10312000010101D088420ED1436C904243F4004328
:10313000436401D0884206D1816801F00701062965
:1031400004BF00207047016841F0010101600020C8
:1031500070470000006841F20041C4F2000188425B
:1031600018BF7047FEF70CBA70470000002804BF74
:103170000120704710B5044690F8410028B900209E
:1031800084F84000204600F063F8242084F84100D1
:103190002068D4E90212C36823F40053C3600369B2
:1031A00023F440531A430261D4E904231143C26853
:1031B000194341F20C639A431143C1604169A2690A
:1031C00021F44071114343F60002C4F2010290421F
:1031D000416103D0FEF7D6FC02E000BFFEF7E6FC3B
:1031E0006268192148439100B0FBF1F048F21F5189
:1031F000C5F2EB11A0FB01235A094FF69C73C0F6F0
:10320000FF7302FB0300322303EB0010A0FB01015C
:10321000F02303EA5113206803EB0212C1F34311B8
:1032200011448160016921F490410161416921F0FB
:103230002A014161C16841F40051C1600020202190
:10324000606484F8411084F84210606310BD00008F
:10325000F0B585B00446006844F60001C4F20001F0
:10326000002688420496CDE90266019654D043F6C2
:103270000001C4F20101884240F08A8041F2180046
:10328000C4F20200016840F6000541F4804101608B
:103290000168C4F2010501F48041009100990168C0
:1032A00001AE41F0040101600068314600F0040005
:1032B000009000984FF400700190022002900320CB
:1032C00004902846FEF74CF84FF4806001900027E8
:1032D00028463146CDE90277FEF742F840F24C1518
:1032E0004420C2F20005C4F20200102180224FF4F3
:1032F000005385E883002846C5E90327C5E905771B
:10330000EB61FDF769FF002818BFFDF713FBA5630C
:103310006C6205B0F0BD00BF41F21800C4F20200BB
:10332000416801AD41F480214160416801F4802190
:1033300000910099016841F0100101600068294680
:1033400000F01000009000984FF48060019002207F
:1033500002900320049040F60000C4F2010000F542
:1033600000642046FDF7FCFF4FF40060CDE9010644
:10337000204629460396FDF7F3FF0420C4F201001E
:10338000016841F0E06141F0100121F0200101608D
:1033900005B0F0BD2DE9F04381B0044690F841003E
:1033A000202840F0B180884600294FF0010000F04D
:1033B000D6801646002A00F0D280002060642120CA
:1033C0001D4684F84100FEF7D5F8A684E684A1687E
:1033D0000646B1F5805F03D12069002800F098808F
:1033E00047464FF00008E18C2068002900F09680E5
:1033F00005F101090BE000BF47B317F8011B41605D
:10340000E18C0139E184E18C002900F087800168BA
:103410000906F1D4B9F1000F0AD0EDB1FEF7AAF810
:10342000801BA84218D8206801680906F6D5E3E792
:1034300001680906E0D4016809065CBF01685FEA1B
:103440000161D9D401680906F2D5D5E738F8021B25
:1034500000276FF35F21D2E7206850E8030F21684F
:1034600020F4D07041E80302BAB3206850E8030F9B
:10347000216820F4D07041E8030272B3206850E85C
:10348000030F216820F4D07041E803022AB32068BA
:1034900050E8030F216820F4D07041E80302002AAD
:1034A000DAD11AE0206850E8050F216820F0010009
:1034B00041E80502DAB1206850E8050F216820F0E4
:1034C000010041E8050292B1206850E8050F21682B
:1034D00020F0010041E805024AB1206850E8050FDC
:1034E000216820F0010041E80502002ADAD12020FD
:1034F00084F8410084F84200002084F84000032052
:1035000001B0BDE8F08300BF022001B0BDE8F08348
:103510000027E18C206800297FF46AAF0168490622
:1035200019D4FDB1691C0DD10168490613D4016895
:1035300049065CBF01685FEA41610CD40168490635
:10354000F2D508E0FEF716F8801BA8420AD82068DA
:1035500000684006F6D5202084F84100002001B024
:10356000BDE8F083206850E8030F216820F4D07094
:1035700041E80302002A3ED0206850E8030F21688A
:1035800020F4D07041E80302AAB3206850E8030F8A
:10359000216820F4D07041E8030262B3206850E84B
:1035A000030F216820F4D07041E80302002AD9D12A
:1035B00021E000BF206850E8050F216820F00100DD
:1035C00041E80502002A3FF492AF206850E8050F59
:1035D000216820F0010041E80502002A3FF487AF8E
:1035E000206850E8050F216820F0010041E805023D
:1035F000002A3FF47CAF206850E8050F216820F0D6
:10360000010041E80502002AD4D170E7FEE700007E
:10361000B0B584B040F22004C2F2000442F200418E
:10362000C4F20101204640F80C1F4FF480710022C3
:1036300001254FF46023C0E90121062105730275BD
:10364000C3610161FDF7D0FA002818BFFDF772F9D8
:103650000420CDE9010507200C34039001A9204680
:10366000FDF7F6F9002818BFFDF764F90F20019067
:103670000220029001A92046FDF7EAF9002818BFB0
:10368000FDF758F9052001900320029001A920467A
:10369000FDF7DEF9002818BFFDF74CF90A2001906C
:1036A0000420029001A92046FDF7D2F9002818BF96
:1036B000FDF740F90B2001900520029001A920465A
:1036C000FDF7C6F9002818BFFDF734F90C2001906A
:1036D0000620029001A92046FDF7BAF9002818BF7C
:1036E000FDF728F904B0B0BD80B582B041F21400F6
:1036F000C4F202000168002241F00101016000688B
:10370000002100F00100019001980B20FDF7EEFF71
:103710000B20FDF7D7FF0E2000210022FDF7E6FF6A
:103720000E2002B0BDE88040FDF7CCBF2DE9F04F80
:1037300085B041F21800C4F20200016841F20006AF
:1037400041F0100101600168C4F2010601F01001AE
:10375000019101990168002241F020010160016896
:103760004FF4405701F020010191019901680024B4
:1037700041F004010160016801F004010191019927
:10378000016841F00801016000684FF4405100F009
:103790000800019001983046FDF7E6FEA6F50065A9
:1037A00028464FF400410022FDF7DEFEA6F58068B2
:1037B00040464FF442710022FDF7D6FE019701AF5B
:1037C0004FF0010B4FF0030930463946CDE902B402
:1037D000CDF81090FDF7C4FD0020C1F221004FF09C
:1037E000080ACDE9020430463946CDF804A0FDF7B9
:1037F000B7FD4FF4607001A981E8110830463946E1
:10380000FDF7AEFD4FF4807001A981E8110828464C
:103810003946FDF7A5FD4FF48050CDE90104284657
:1038200039460394FDF79CFD30463946CDE901A4A5
:103830000394FDF795FD4FF40040CDE9010B2846B8
:103840003946CDE90349FDF78BFD4FF44270CDE9D0
:10385000010B40463946CDE90349FDF781FD0920BA
:1038600000210022FDF742FF0920FDF72BFF05B0E4
:10387000BDE8F08FB0B596B040F2901042F600422D
:103880000021C2F20000C4F2010241F2BF238025F0
:103890001591CDE913111191CDE90F11CDE90D115C
:1038A000CDE90B11CDE90911CDE90711CDE90511DC
:1038B000CDE90311CDE90111C0E90021C0E90213EE
:1038C000C0E904118561FEF76FFC002818BFFDF701
:1038D00031F84FF48050129040F29010C2F2000084
:1038E00012A9FEF7EBFD002818BFFDF723F840F200
:1038F0009010C2F20000FFF75BF9002818BFFDF737
:1039000019F840F29010C2F20000FFF719FB0028EE
:1039100018BFFDF70FF840F290100024C2F200002B
:1039200010A9CDE91044FEF785FB002818BFFDF76C
:1039300001F8302009904FF4FA70CDE90A04CDE97E
:103940000C44CDE90E4440F29014C2F2000409A9DF
:1039500020460022FFF72EF8002818BFFCF7EAFFE8
:1039600020680422816941F00801816110200990DA
:1039700009A92046FFF71EF8002818BFFCF7DAFF58
:1039800020680822816941F400618161502009901A
:1039900009A92046FFF70EF8002818BFFCF7CAFF58
:1039A00020680025C1690C2241F00801C161602036
:1039B000099009A920460A95FFF790F9002818BF39
:1039C000FCF7B8FF4FF40050069040F29010C2F29E
:1039D000000001A90595CDE90355CDE901550895EC
:1039E000FEF702FB002818BFFCF7A4FF40F290107E
:1039F000C2F20000FEF7EAFE16B0B0BD10B58EB000
:103A000040F2D8100021C2F2000042F20F740D9172
:103A1000CDE90B110991CDE90711CDE90511CDE9EA
:103A20000311CDE901114FF080428F23C0E9021448
:103A300001618021C0E900238161FEF7B5FB002808
:103A400018BFFCF777FF4FF480500A9040F2D8106F
:103A5000C2F200000AA9FEF731FD002818BFFCF7EA
:103A600069FF40F2D810C2F20000FFF769FA00289F
:103A700018BFFCF75FFF40F2D8100024C2F200002C
:103A800008A9CDE90844FEF7D5FA002818BFFCF7CD
:103A900051FF6020019040F2EE20CDE9020440F297
:103AA000D810C2F2000001A900220594FFF716F910
:103AB000002818BFFCF73EFF40F2D810C2F2000009
:103AC00001A90422FFF70AF9002818BFFCF732FF0A
:103AD00040F2D810C2F20000FEF778FE0EB010BD22
:103AE00010B58EB040F220200021C2F2000040F25A
:103AF000004242F20F740D91CDE90B110991CDE90D
:103B00000711CDE90511CDE90311CDE90111C4F289
:103B100000028F23C0E9021401618021C0E9002363
:103B20008161FEF741FB002818BFFCF703FF4FF44B
:103B300080500A9040F22020C2F200000AA9FEF74D
:103B4000BDFC002818BFFCF7F5FE40F22020C2F2B1
:103B50000000FFF7F5F9002818BFFCF7EBFE40F274
:103B600020200024C2F2000008A9CDE90844FEF795
:103B700061FA002818BFFCF7DDFE6020019040F2DA
:103B8000EE20CDE9020440F22020C2F2000001A99B
:103B900000220594FFF7A2F8002818BFFCF7CAFE20
:103BA00040F22020C2F2000001A90422FFF796F89B
:103BB000002818BFFCF7BEFE40F22020C2F2000031
:103BC00001A90822FFF78AF8002818BFFCF7B2FE07
:103BD00040F22020C2F20000FEF7F8FD0EB010BD4A
:103BE00010B58EB040F2682040F600020021C2F20B
:103BF0000000C4F2000241F2BF230D91CDE90B1188
:103C00000991CDE90711CDE90511CDE90311CDE900
:103C10000111C0E90021C0E9021301618021816125
:103C2000FEF7C2FA002818BFFCF784FE4FF480505C
:103C30000A9040F26820C2F200000AA9FEF73EFC9A
:103C4000002818BFFCF776FE40F26820C2F20000A0
:103C5000FFF776F9002818BFFCF76CFE40F26820E9
:103C60000024C2F2000008A9CDE90844FEF7E2F9F9
:103C7000002818BFFCF75EFE6020CDE9010440F289
:103C80006820C2F2000001A9002203940594FFF706
:103C900025F8002818BFFCF74DFE40F26820C2F25C
:103CA000000001A90422FFF719F8002818BFFCF74B
:103CB00041FE40F26820C2F20000FEF787FD0EB020
:103CC00010BD000010B58EB040F2B0200021C2F24D
:103CD000000040F6004242F20F740D91CDE90B1145
:103CE0000991CDE90711CDE90511CDE90311CDE920
:103CF0000111C4F200028F23C0E902140161802186
:103D0000C0E900238161FEF74FFA002818BFFCF7D5
:103D100011FE4FF480500A9040F2B020C2F2000031
:103D20000AA9FEF7CBFB002818BFFCF703FE40F200
:103D3000B020C2F20000FFF703F9002818BFFCF71B
:103D4000F9FD40F2B0200024C2F2000008A9CDE93C
:103D50000844FEF76FF9002818BFFCF7EBFD602060
:103D6000019040F2EE20CDE9020440F2B020C2F210
:103D7000000001A908220594FEF7B0FF002818BF33
:103D8000FCF7D8FD40F2B020C2F2000001A90C22DD
:103D9000FEF7A4FF002818BFFCF7CCFD40F2B020CE
:103DA000C2F20000FEF712FD0EB010BD80B582B069
:103DB00040F2F8200021C2F2000041F200024FF66A
:103DC000FF7CCDE90011C4F200024723C0E9021CC8
:103DD0008021C0E900238161FEF7E6F9002818BFC1
:103DE000FCF7A8FD40F2F820C2F200006946FEF799
:103DF00021F9002818BFFCF79DFD36200021002284
:103E0000FDF774FC3620FDF75DFC02B080BD0000BC
:103E100010B596B040F2883043F200420021C2F261
:103E20000000C4F2010241F2BF231591CDE9131144
:103E30001191CDE90F11CDE90D11CDE90B11CDE9AE
:103E40000911CDE90711CDE90511CDE90311CDE93E
:103E50000111C0E90021C0E90213C0E90411816128
:103E6000FEF7A2F9002818BFFCF764FD4FF480505C
:103E7000129040F28830C2F2000012A9FEF71EFB39
:103E8000002818BFFCF756FD40F28830C2F200004F
:103E9000FFF756F8002818BFFCF74CFD40F28830B9
:103EA0000024C2F2000010A9CDE91044FEF7C2F8C8
:103EB000002818BFFCF73EFD6020CDE9090440F260
:103EC0008830C2F2000009A90022CDE90B44CDE9F7
:103ED0000D440F94FEF702FF002818BFFCF72AFDDF
:103EE00000200590CDE90300CDE901004FF4005119
:103EF000089040F288300691C2F2000001A9FEF756
:103F000073F8002818BFFCF715FD40F28830C2F2A4
:103F10000000FEF75BFC16B010BD000080B540F25B
:103F2000D03043F60001C2F20000C4F201010023C8
:103F30004FF00C0C4FF4E13280E80E00C0E903337F
:103F4000C0E905C3C361FFF711F9002808BF80BDB0
:103F5000BDE88040FCF7EEBC80B540F2184044F666
:103F60000001C2F20000C4F2000100234FF00C0C6B
:103F70004FF4E13280E80E00C0E90333C0E905C325
:103F8000C361FFF7F3F8002808BF80BDBDE880409B
:103F9000FCF7D0BCFEE70000FEE7000080B540F271
:103FA000C00CC2F2000CBCF8001040F2140E4B1C06
:103FB00099B2C2F2000E0229BEF80210ACF800302D
:103FC00014D3A1F5FA5398B29EF800304EF22412A1
:103FD00090429CBF5B428EF8003058B2642200FBD6
:103FE00002110020AEF80210ACF8000008B280BD4B
:103FF00010B542F61840C4F20100016840F2901476
:1040000021F0700101600168C2F2000441F060011A
:104010000160016821F4E0410160016841F4C041A0
:104020000160416821F070014160416841F0600128
:10403000416020460021FEF747F820460421FEF7A4
:1040400043F820460821FEF73FF820460C21FFF7F1
:104050000FF840F26824C2F2000420460021FFF766
:1040600007F820460421FFF703F820460821FEF751
:10407000FFFF20460C21FEF7FBFF40F28830C2F222
:1040800000000021FEF7F4FF40F2D814C2F2000451
:1040900020460021FEF7ECFF20460421FEF7E8FF52
:1040A00040F22024C2F2000420460021FEF7E0FF87
:1040B00020460421FEF7DCFF20460821FEF7D8FF4A
:1040C00040F2B024C2F2000420460821FEF7D0FFDF
:1040D00020460C21BDE81040FEF7CABF002948BFAA
:1040E00049420160704700007047000040F2C40080
:1040F00041F20001C2F20000C4F20101016040F28D
:10410000F8210822C2F200018280002209680273AD
:104110008274C0E90522C0E90722C0E90922C0E98A
:104120000B2240F2E832C0F240628160C0F80E20FB
:10413000086840F0010008607047000070B540F268
:10414000C400C2F20000017B002211F0FD0F04BF89
:10415000012101738368596A5A62437B012B8BB238
:104160004FEA53130CBF4273827C7C2B98BF072A03
:1041700004D9002181740121417370BD00EB420319
:104180009982511C0829817418BF70BDB0F814C001
:10419000B0F92430C189028A63445B1A4FF4FA6C87
:1041A000521A03FB0CF393FBF2F3B0F926E0A3F5EC
:1041B0007A738386C38AB0F92840058B73445B1AEF
:1041C000254403FB0CF36D1A93FBF2F305FB0CF58E
:1041D00095FBF2F5A3F57A73B0F92A60C386A5F5CD
:1041E0007A73458B03877319868BB0F92C505B1A51
:1041F0002E4403FB0CF3761A93FBF2F306FB0CF64A
:1042000096FBF2F6A3F57A734387A6F57A73838754
:10421000C38BB0F92E60B0F9305033445B1A03FB06
:104220000CF393FBF2F3048CA3F57A73B0F93260CC
:10423000C3872B19458C5B1A2E44711A03FB0CF3B0
:1042400001FB0CF193FBF2F391FBF2F1A3F57A730E
:10425000A1F57A71A0F84030A0F8421070BD0000BE
:1042600070470000F0B581B000F0EEF840F2C205F2
:10427000C2F2000528780821042201EAD00102EAEE
:104280009002022340F21C0600F0010403EA5000F1
:104290001144C2F20006084431782044884200F0FC
:1042A000D18008284FF0010700F2A68040F260019B
:1042B000C2F20001DFE800F0062048A064A0A0A040
:1042C000820000BF41F6B86340F22622C3F60573B0
:1042D0000A8245F629428B6349F69A13C3F68F5238
:1042E000C3F619634CF6CD4701F1400CC3F6CC5729
:1042F0008CE88C00CB641BE043F6715340F28A22B9
:10430000C3F60A730A824CF6CD4C8B634CF6CD4350
:1043100049F69A1748F21F52C3F6CC5CC3F64C63B9
:10432000C3F61967C3F66B62C1E910C3C1E9127223
:1043300046F26662C3F6E6724FF06633C1E91632A2
:104340004FF47A7256E000BF4BF6520340F28A22D5
:10435000C3F61E730A8241F27B428B634CF6CD4357
:10436000C3F6AE52C3F64C6344F2AE7701F1400C93
:10437000C3F661678CE88C00CB644FF47A7239E045
:104380004BF652034FF44872C3F61E730A824CF286
:104390008F2C8B6344F2AE7340F63D274AF2D7323E
:1043A000C3F6755CC3F66163C3F65767C3F6706204
:1043B000C1E910C3C1E9127208221BE04FF47A72FE
:1043C00000230A82C3F6207340F63D274AF2D73213
:1043D0004FF6F45C8B6346F26663C3F65767C3F629
:1043E0007062C3F6545CC3F66663C1E912720522BB
:1043F000C1E910C30746CA61FFF7D0FD00FB04F115
:1044000040F60004C4F2010404F51150FFF766FE03
:1044100028784FF40041C0F380022046FDF7A4F84D
:1044200028784FF48051C0F3001204F50060FDF7C6
:104430009BF828780821C0F3801204F58060FDF70E
:1044400093F8377001B0F0BD40F2C20C4FF6000394
:1044500041F20801C2F2000CCFF6FF73C4F2010171
:104460009CF80000CB586FF0540202EA4000C3F3FE
:10447000002210440A68042303EA921210440A68D6
:10448000102303EA521209681044402202EA510143
:10449000084480F0550101F055008CF80010704779
:1044A000704700007047000040F2F820C2F20000A0
:1044B000FEF7D4B840F24030C2F20000FEF7CEB8AA
:1044C000FEE700000A23FEF765BF000010B584B0C8
:1044D000044640F26600C2F20000B0F900004FF05E
:1044E000FF410191FCF702F840F26801C2F20001BD
:1044F000B1F9001002900846FBF7F8FF039002A9FB
:1045000020460822FFF7DEFF01A920460422FFF71C
:10451000D9FF04B010BD000098B0FDF73FF80024AB
:104520004FF480300225CDE90F04CDE915504FF44A
:10453000E010012117900EA8CDE91344CDE91144F4
:104540000894CDE90644CDE904440E911291FDF79B
:104550006DFB0F20CDE909054FF48060CDE90C0417
:1045600009A802210B94FDF70BFA4FF400400590C7
:1045700003A80395FDF77EF9FFF7D8F8FFF7B4F825
:10458000FFF7CCFCFFF7E8FCFFF7AAFAFFF79AFB6E
:10459000FFF726FBFFF70AFCFFF730FAFFF738FCBE
:1045A000FFF768F9FFF734F8FFF722FDFFF79EFDEC
:1045B000FCF796F940F26009C2F2000909F14000E7
:1045C000C9F8504089F85440C9E90A44C9F8304054
:1045D000009037E040F20000C2F20000018840F293
:1045E0003C40C4F20000FFF779FD40F23C44B9F8CA
:1045F0000210C4F2000404F57F70FFF76FFDB9F8F4
:10460000041004F57E70FFF769FD41F20000C4F26A
:10461000010099F80020A0F5806420464FF48071D5
:10462000FCF7A2FF99F8012020464FF40071FCF737
:104630009BFF40F2D030C2F20000FFF747FF0A2094
:10464000FCF768FE0020FCF741F9A9F806000120FC
:10465000FCF73CF9B9F90610D9E9165406460846A4
:10466000FBF752FF02460B4628462146FBF744FE65
:10467000FBF774FFA9F8060030B2FBF745FF0246CE
:104680000B4628462146FBF737FEFBF767FFA9F8E4
:104690000800FFF7E7FDB9F90600B9F90810401A5C
:1046A000FBF724FF8346C9F83400FBF776FFD9E90E
:1046B00016674CF2000304460D4630463946002288
:1046C000C4F29203FBF718FE22462B46FBF7BDFE11
:1046D0004CF200038046304639460022CCF2920369
:1046E000FBF70AFE22462B46FBF7E5FE50EA0800E0
:1046F0000246009918BF09F138010E6818BF01225F
:104700000292D9E91182D9F8281000284446584667
:10471000C9F83C60019218BF1446FBF777FD4DF2D3
:104720000A71C3F62341FBF7A9FDD9F82C10054601
:1047300008464CF6CD41C3F64C71FBF76DFD4CF6C7
:10474000CD4107462846C3F64C61FBF765FD394667
:10475000FBF70AFD824620465146C9E90ABAFBF733
:104760005BFD044630465946FBF756FD2146FBF7F4
:10477000FBFC0021C4F24641FBF7F6FCFBF7D5FE3B
:1047800040F25E318842A9F80A0005DC40F2D121EE
:10479000884204DC40F2D2210846A9F80A1040F20F
:1047A0000001C2F20001088080B2FBF7A8FE0021E0
:1047B000CCF24641FBF7D8FC044601980021C4F234
:1047C0004001FBF729FD054640464146FBF7CCFC7E
:1047D000DDF808804CF6CD4107465046C3F64C71D3
:1047E000B8F1000F18BF2F46FBF716FD01463846FB
:1047F000C9E90AB1FBF710FD054630462146FBF733
:104800000BFD2946FBF7B0FC40F20001C2F20001AB
:104810008D6804462946FBF7EFFD60B940F20000C1
:10482000C2F20000466820463146FBF7D7FD254618
:10483000002808BF354641F200044FF60800C9F8C9
:104840001450C4F20104CFF6FF702058C00411D4F4
:10485000002520464FF400510022C9F80C50FCF707
:1048600083FEB9F80C60B9F80E00C9F82050C9F8F9
:104870001850A9E020460821FCF770FED9F8301046
:1048800046F267634A1CC6F2666382FB033709F18E
:1048900050035854781099F8501000EBD77000EB83
:1048A00080000139101AB1FA81F199F851204B09B1
:1048B00099F85210012A08BF0133012999F85310C1
:1048C00008BF0133012999F8541008BF01330129A9
:1048D00008BF0133D9F82010032BC9F8300010D3DA
:1048E00079B9D9E9060101308842C9F8180023DBFB
:1048F0000120C9F82000FCF73DFED9F82010C9F8C6
:10490000240002290AD0012916D10220C9F820006A
:10491000FCF730FEC9F824000EE000BFFCF72AFEC9
:10492000D9F82410401A40F22621884204D30320EB
:10493000C9F8200004E000BFD9F82000032805DBF7
:1049400000200022A9F80C0013E000BFB9F9100004
:10495000A9F80C00FBF7D8FD4CF6CD424CF6CC4341
:10496000CCF6CC42C3F6F473FBF7C6FCFBF7F6FDBE
:104970000122A9F80E0020464FF40051FCF7F4FD87
:10498000D9F81400FBF709FE46F266634FF0663271
:10499000C3F6E67304460D46FBF7AEFCFBF7DEFDFF
:1049A000B9F80C1040F63D2243F670530E1A20461B
:1049B0002946CAF2D732C3F6EA73FBF79DFCFBF730
:1049C000CDFDB9F80E10084431B2B1F57A6F4FF44D
:1049D0007A63A8BF194611F57A6F4FF2600700B2EB
:1049E000CFF6FF77D8BF3946B0F57A6FA9F80C102B
:1049F000A8BF184610F57A6F8AB2D8BF3846B1F111
:104A0000FF3F83B2A9F80E00D8BF01F59651D20B33
:104A1000B0F1FF3FA9F8021089F80020D8BF00F5D7
:104A20009650D90BB8F1000FA9F8040089F80110CD
:104A30003FF4D0ADD9F83400D9E91645FBF7ADFD08
:104A400044F2000383460F46204629460022C4F262
:104A50008F03FBF751FC5A463B46FBF711FD45F22D
:104A600000030646204629460022C4F29403FBF7C1
:104A700043FC80468A4646B9404651465A463B4624
:104A8000FBF719FD00287FF4A5AD44F20003204692
:104A900029460022CCF28F03FBF72EFC5A463B46F8
:104AA000FBF709FD45F2000306460028204629468B
:104AB0004FF00002CCF2940318BF0126FBF71CFC58
:104AC0005A463B4604460D46FBF7BFFC002818BF7C
:104AD000012006427FF47EAD404651465A463B4691
:104AE000FBF7B3FC00287FF475AD204629465A46F3
:104AF0003B46FBF78FFC00287FF477AD6AE502E0C8
:104B000008C8121F08C1002AFAD170477047002058
:104B100001E001C1121F002AFBD170470000000014
:104B2000000000000102030406070809000000005D
:104B300001020304010202030405060708090A0B27
:104B40000C0D0E0F10100000684B00080000002034
:104B500020000000FE4A0008884B000820000020CA
:104B6000480800000E4B0008180300000000C8C3EE
:104B70000000C84301000000100000000100D20F37
:084B80000024F400FF00000016
:0400000508000131BD
:00000001FF
